{
  "address": "0x5843A83F74B3B94fdf006fcd408661cB5D740EaA",
  "abi": [
    {
      "inputs": [
        {
          "internalType": "address",
          "name": "_profileContract",
          "type": "address"
        }
      ],
      "stateMutability": "nonpayable",
      "type": "constructor"
    },
    {
      "anonymous": false,
      "inputs": [
        {
          "indexed": false,
          "internalType": "uint256",
          "name": "id",
          "type": "uint256"
        },
        {
          "indexed": false,
          "internalType": "address",
          "name": "author",
          "type": "address"
        },
        {
          "indexed": false,
          "internalType": "string",
          "name": "content",
          "type": "string"
        },
        {
          "indexed": false,
          "internalType": "uint256",
          "name": "timestamp",
          "type": "uint256"
        }
      ],
      "name": "TweetCreated",
      "type": "event"
    },
    {
      "anonymous": false,
      "inputs": [
        {
          "indexed": false,
          "internalType": "address",
          "name": "liker",
          "type": "address"
        },
        {
          "indexed": false,
          "internalType": "address",
          "name": "tweetAuthor",
          "type": "address"
        },
        {
          "indexed": false,
          "internalType": "uint256",
          "name": "tweetId",
          "type": "uint256"
        },
        {
          "indexed": false,
          "internalType": "uint256",
          "name": "newLikeCount",
          "type": "uint256"
        }
      ],
      "name": "TweetLiked",
      "type": "event"
    },
    {
      "anonymous": false,
      "inputs": [
        {
          "indexed": false,
          "internalType": "address",
          "name": "unliker",
          "type": "address"
        },
        {
          "indexed": false,
          "internalType": "address",
          "name": "tweetAuthor",
          "type": "address"
        },
        {
          "indexed": false,
          "internalType": "uint256",
          "name": "tweetId",
          "type": "uint256"
        },
        {
          "indexed": false,
          "internalType": "uint256",
          "name": "newLikeCount",
          "type": "uint256"
        }
      ],
      "name": "TweetUnliked",
      "type": "event"
    },
    {
      "inputs": [],
      "name": "MAX_TWEET_LENGTH",
      "outputs": [
        {
          "internalType": "uint16",
          "name": "",
          "type": "uint16"
        }
      ],
      "stateMutability": "view",
      "type": "function"
    },
    {
      "inputs": [
        {
          "internalType": "uint16",
          "name": "_newTweetLength",
          "type": "uint16"
        }
      ],
      "name": "changeTweetLength",
      "outputs": [],
      "stateMutability": "nonpayable",
      "type": "function"
    },
    {
      "inputs": [
        {
          "internalType": "string",
          "name": "_tweet",
          "type": "string"
        }
      ],
      "name": "createTweet",
      "outputs": [],
      "stateMutability": "nonpayable",
      "type": "function"
    },
    {
      "inputs": [
        {
          "internalType": "address",
          "name": "_owner",
          "type": "address"
        }
      ],
      "name": "getAllTweets",
      "outputs": [
        {
          "components": [
            {
              "internalType": "address",
              "name": "author",
              "type": "address"
            },
            {
              "internalType": "string",
              "name": "content",
              "type": "string"
            },
            {
              "internalType": "uint256",
              "name": "timestamp",
              "type": "uint256"
            },
            {
              "internalType": "uint256",
              "name": "likes",
              "type": "uint256"
            },
            {
              "internalType": "uint256",
              "name": "id",
              "type": "uint256"
            }
          ],
          "internalType": "struct YourContract.Tweet[]",
          "name": "",
          "type": "tuple[]"
        }
      ],
      "stateMutability": "view",
      "type": "function"
    },
    {
      "inputs": [
        {
          "internalType": "address",
          "name": "_author",
          "type": "address"
        }
      ],
      "name": "getTotalLikes",
      "outputs": [
        {
          "internalType": "uint256",
          "name": "",
          "type": "uint256"
        }
      ],
      "stateMutability": "view",
      "type": "function"
    },
    {
      "inputs": [
        {
          "internalType": "uint256",
          "name": "_i",
          "type": "uint256"
        }
      ],
      "name": "getTweet",
      "outputs": [
        {
          "components": [
            {
              "internalType": "address",
              "name": "author",
              "type": "address"
            },
            {
              "internalType": "string",
              "name": "content",
              "type": "string"
            },
            {
              "internalType": "uint256",
              "name": "timestamp",
              "type": "uint256"
            },
            {
              "internalType": "uint256",
              "name": "likes",
              "type": "uint256"
            },
            {
              "internalType": "uint256",
              "name": "id",
              "type": "uint256"
            }
          ],
          "internalType": "struct YourContract.Tweet",
          "name": "",
          "type": "tuple"
        }
      ],
      "stateMutability": "view",
      "type": "function"
    },
    {
      "inputs": [
        {
          "internalType": "address",
          "name": "author",
          "type": "address"
        },
        {
          "internalType": "uint256",
          "name": "id",
          "type": "uint256"
        }
      ],
      "name": "likeTweet",
      "outputs": [],
      "stateMutability": "nonpayable",
      "type": "function"
    },
    {
      "inputs": [
        {
          "internalType": "address",
          "name": "",
          "type": "address"
        },
        {
          "internalType": "uint256",
          "name": "",
          "type": "uint256"
        }
      ],
      "name": "tweets",
      "outputs": [
        {
          "internalType": "address",
          "name": "author",
          "type": "address"
        },
        {
          "internalType": "string",
          "name": "content",
          "type": "string"
        },
        {
          "internalType": "uint256",
          "name": "timestamp",
          "type": "uint256"
        },
        {
          "internalType": "uint256",
          "name": "likes",
          "type": "uint256"
        },
        {
          "internalType": "uint256",
          "name": "id",
          "type": "uint256"
        }
      ],
      "stateMutability": "view",
      "type": "function"
    },
    {
      "inputs": [
        {
          "internalType": "address",
          "name": "author",
          "type": "address"
        },
        {
          "internalType": "uint256",
          "name": "id",
          "type": "uint256"
        }
      ],
      "name": "unlikeTweet",
      "outputs": [],
      "stateMutability": "nonpayable",
      "type": "function"
    }
  ],
  "transactionHash": "0xb599e59e6dd7fa99178e3eb8de7055bd8375c726348909365c382bfc2e14d50d",
  "args": [
    "0xaf4f73D9e586B1854159069c1845f4935A824b54"
  ],
  "numDeployments": 1,
  "solcInputHash": "428110b7bf140e75aaab495a83e1f689",
  "bytecode": "0x60806040526000805461ffff191661011817905534801561001f57600080fd5b506040516111a23803806111a283398101604081905261003e91610063565b600280546001600160a01b0319166001600160a01b0392909216919091179055610093565b60006020828403121561007557600080fd5b81516001600160a01b038116811461008c57600080fd5b9392505050565b611100806100a26000396000f3fe608060405234801561001057600080fd5b50600436106100935760003560e01c8063633782161161006657806363378216146101205780636eb10797146101335780637c9cd2bc14610154578063820785cc14610167578063c3ad5ecb1461018857600080fd5b806305a1b4a91461009857806312e7ee1c146100c55780633d9b569f146100e557806358bfa4ab146100fa575b600080fd5b6100ab6100a6366004610b0e565b6101a8565b6040516100bc959493929190610b88565b60405180910390f35b6100d86100d3366004610bc9565b61028a565b6040516100bc9190610c3c565b6100f86100f3366004610b0e565b6103c5565b005b6100f8610108366004610c9e565b6000805461ffff191661ffff92909216919091179055565b6100f861012e366004610b0e565b61067f565b6000546101419061ffff1681565b60405161ffff90911681526020016100bc565b6100f8610162366004610d31565b6107f3565b61017a610175366004610bc9565b610927565b6040519081526020016100bc565b61019b610196366004610db1565b6109af565b6040516100bc9190610dca565b600160205281600052604060002081815481106101c457600080fd5b6000918252602090912060059091020180546001820180546001600160a01b0390921694509192506101f590610ddd565b80601f016020809104026020016040519081016040528092919081815260200182805461022190610ddd565b801561026e5780601f106102435761010080835404028352916020019161026e565b820191906000526020600020905b81548152906001019060200180831161025157829003601f168201915b5050505050908060020154908060030154908060040154905085565b6001600160a01b0381166000908152600160209081526040808320805482518185028101850190935280835260609492939192909184015b828210156103ba5760008481526020908190206040805160a081019091526005850290910180546001600160a01b03168252600181018054929391929184019161030b90610ddd565b80601f016020809104026020016040519081016040528092919081815260200182805461033790610ddd565b80156103845780601f1061035957610100808354040283529160200191610384565b820191906000526020600020905b81548152906001019060200180831161036757829003601f168201915b505050505081526020016002820154815260200160038201548152602001600482015481525050815260200190600101906102c2565b505050509050919050565b60025460405162f53a4760e41b81523360048201526000916001600160a01b031690630f53a47090602401600060405180830381865afa15801561040d573d6000803e3d6000fd5b505050506040513d6000823e601f3d908101601f191682016040526104359190810190610e64565b8051519091506104825760405162461bcd60e51b81526020600482015260136024820152721554d154881393d508149151d254d511549151606a1b60448201526064015b60405180910390fd5b6001600160a01b03831660009081526001602052604090208054839190829081106104af576104af610f0b565b906000526020600020906005020160040154146105055760405162461bcd60e51b8152602060048201526014602482015273547765657420446f65736e74206578697374732160601b6044820152606401610479565b6001600160a01b038316600090815260016020526040812080548490811061052f5761052f610f0b565b9060005260206000209060050201600301541161058e5760405162461bcd60e51b815260206004820152601760248201527f547765657420646f65736e742068617665206c696b65730000000000000000006044820152606401610479565b6001600160a01b03831660009081526001602052604090208054839081106105b8576105b8610f0b565b6000918252602082206003600590920201018054916105d683610f37565b91905055507f762c2616349603ac16eba0de8e6141b79129a07ab63bd99e0a80b3a47171694333848460016000886001600160a01b03166001600160a01b03168152602001908152602001600020868154811061063557610635610f0b565b600091825260209182902060036005909202010154604080516001600160a01b039687168152959094169185019190915291830152606082015260800160405180910390a1505050565b6001600160a01b03821660009081526001602052604090208054829190829081106106ac576106ac610f0b565b906000526020600020906005020160040154146107025760405162461bcd60e51b8152602060048201526014602482015273547765657420446f65736e74206578697374732160601b6044820152606401610479565b6001600160a01b038216600090815260016020526040902080548290811061072c5761072c610f0b565b60009182526020822060036005909202010180549161074a83610f4e565b91905055507fe8a76fc0f16d11a00d1e93b689b63d76cf60af914dd3d915375dc41d01a0c3c833838360016000876001600160a01b03166001600160a01b0316815260200190815260200160002085815481106107a9576107a9610f0b565b600091825260209182902060036005909202010154604080516001600160a01b03968716815295909416918501919091529183015260608201526080015b60405180910390a15050565b600054815161ffff90911610156108415760405162461bcd60e51b8152602060048201526012602482015271547765657420697320746f6f206c6f6e672160701b6044820152606401610479565b6040805160a08101825233808252602080830185815242848601526000606085018190529283526001808352948320805460808601819052868452808701825590845291909220835160059092020180546001600160a01b0319166001600160a01b03909216919091178155905191928392908201906108c19082610fb6565b5060408201518160020155606082015181600301556080820151816004015550507f16fd3c13e9d46923e0a8bce11c7b473ec508a72e6c96cd2404b29ce972afc29e81608001518260000151836020015184604001516040516107e79493929190611076565b60008060005b6001600160a01b0384166000908152600160205260409020548110156109a8576001600160a01b038416600090815260016020526040902080548290811061097757610977610f0b565b9060005260206000209060050201600301548261099491906110b1565b9150806109a081610f4e565b91505061092d565b5092915050565b6109ea6040518060a0016040528060006001600160a01b03168152602001606081526020016000815260200160008152602001600081525090565b336000908152600160205260409020805483908110610a0b57610a0b610f0b565b60009182526020918290206040805160a0810190915260059092020180546001600160a01b031682526001810180549293919291840191610a4b90610ddd565b80601f0160208091040260200160405190810160405280929190818152602001828054610a7790610ddd565b8015610ac45780601f10610a9957610100808354040283529160200191610ac4565b820191906000526020600020905b815481529060010190602001808311610aa757829003601f168201915b5050505050815260200160028201548152602001600382015481526020016004820154815250509050919050565b80356001600160a01b0381168114610b0957600080fd5b919050565b60008060408385031215610b2157600080fd5b610b2a83610af2565b946020939093013593505050565b60005b83811015610b53578181015183820152602001610b3b565b50506000910152565b60008151808452610b74816020860160208601610b38565b601f01601f19169290920160200192915050565b6001600160a01b038616815260a060208201819052600090610bac90830187610b5c565b604083019590955250606081019290925260809091015292915050565b600060208284031215610bdb57600080fd5b610be482610af2565b9392505050565b60018060a01b0381511682526000602082015160a06020850152610c1260a0850182610b5c565b90506040830151604085015260608301516060850152608083015160808501528091505092915050565b6000602080830181845280855180835260408601915060408160051b870101925083870160005b82811015610c9157603f19888603018452610c7f858351610beb565b94509285019290850190600101610c63565b5092979650505050505050565b600060208284031215610cb057600080fd5b813561ffff81168114610be457600080fd5b634e487b7160e01b600052604160045260246000fd5b604051601f8201601f1916810167ffffffffffffffff81118282101715610d0157610d01610cc2565b604052919050565b600067ffffffffffffffff821115610d2357610d23610cc2565b50601f01601f191660200190565b600060208284031215610d4357600080fd5b813567ffffffffffffffff811115610d5a57600080fd5b8201601f81018413610d6b57600080fd5b8035610d7e610d7982610d09565b610cd8565b818152856020838501011115610d9357600080fd5b81602084016020830137600091810160200191909152949350505050565b600060208284031215610dc357600080fd5b5035919050565b602081526000610be46020830184610beb565b600181811c90821680610df157607f821691505b602082108103610e1157634e487b7160e01b600052602260045260246000fd5b50919050565b600082601f830112610e2857600080fd5b8151610e36610d7982610d09565b818152846020838601011115610e4b57600080fd5b610e5c826020830160208701610b38565b949350505050565b600060208284031215610e7657600080fd5b815167ffffffffffffffff80821115610e8e57600080fd5b9083019060408286031215610ea257600080fd5b604051604081018181108382111715610ebd57610ebd610cc2565b604052825182811115610ecf57600080fd5b610edb87828601610e17565b825250602083015182811115610ef057600080fd5b610efc87828601610e17565b60208301525095945050505050565b634e487b7160e01b600052603260045260246000fd5b634e487b7160e01b600052601160045260246000fd5b600081610f4657610f46610f21565b506000190190565b600060018201610f6057610f60610f21565b5060010190565b601f821115610fb157600081815260208120601f850160051c81016020861015610f8e5750805b601f850160051c820191505b81811015610fad57828155600101610f9a565b5050505b505050565b815167ffffffffffffffff811115610fd057610fd0610cc2565b610fe481610fde8454610ddd565b84610f67565b602080601f83116001811461101957600084156110015750858301515b600019600386901b1c1916600185901b178555610fad565b600085815260208120601f198616915b8281101561104857888601518255948401946001909101908401611029565b50858210156110665787850151600019600388901b60f8161c191681555b5050505050600190811b01905550565b8481526001600160a01b03841660208201526080604082018190526000906110a090830185610b5c565b905082606083015295945050505050565b808201808211156110c4576110c4610f21565b9291505056fea2646970667358221220b7883db20f0301a03cbcae5961dffca8cd9cec3dfca01f8a22ba675efa4f000364736f6c63430008110033",
  "devdoc": {
    "kind": "dev",
    "methods": {},
    "version": 1
  },
  "userdoc": {
    "kind": "user",
    "methods": {},
    "version": 1
  },
  "storageLayout": {
    "storage": [
      {
        "astId": 20,
        "contract": "contracts/YourContract.sol:YourContract",
        "label": "MAX_TWEET_LENGTH",
        "offset": 0,
        "slot": "0",
        "type": "t_uint16"
      },
      {
        "astId": 37,
        "contract": "contracts/YourContract.sol:YourContract",
        "label": "tweets",
        "offset": 0,
        "slot": "1",
        "type": "t_mapping(t_address,t_array(t_struct(Tweet)31_storage)dyn_storage)"
      },
      {
        "astId": 40,
        "contract": "contracts/YourContract.sol:YourContract",
        "label": "profileContract",
        "offset": 0,
        "slot": "2",
        "type": "t_contract(IProfile)17"
      }
    ],
    "types": {
      "t_address": {
        "encoding": "inplace",
        "label": "address",
        "numberOfBytes": "20"
      },
      "t_array(t_struct(Tweet)31_storage)dyn_storage": {
        "base": "t_struct(Tweet)31_storage",
        "encoding": "dynamic_array",
        "label": "struct YourContract.Tweet[]",
        "numberOfBytes": "32"
      },
      "t_contract(IProfile)17": {
        "encoding": "inplace",
        "label": "contract IProfile",
        "numberOfBytes": "20"
      },
      "t_mapping(t_address,t_array(t_struct(Tweet)31_storage)dyn_storage)": {
        "encoding": "mapping",
        "key": "t_address",
        "label": "mapping(address => struct YourContract.Tweet[])",
        "numberOfBytes": "32",
        "value": "t_array(t_struct(Tweet)31_storage)dyn_storage"
      },
      "t_string_storage": {
        "encoding": "bytes",
        "label": "string",
        "numberOfBytes": "32"
      },
      "t_struct(Tweet)31_storage": {
        "encoding": "inplace",
        "label": "struct YourContract.Tweet",
        "members": [
          {
            "astId": 22,
            "contract": "contracts/YourContract.sol:YourContract",
            "label": "author",
            "offset": 0,
            "slot": "0",
            "type": "t_address"
          },
          {
            "astId": 24,
            "contract": "contracts/YourContract.sol:YourContract",
            "label": "content",
            "offset": 0,
            "slot": "1",
            "type": "t_string_storage"
          },
          {
            "astId": 26,
            "contract": "contracts/YourContract.sol:YourContract",
            "label": "timestamp",
            "offset": 0,
            "slot": "2",
            "type": "t_uint256"
          },
          {
            "astId": 28,
            "contract": "contracts/YourContract.sol:YourContract",
            "label": "likes",
            "offset": 0,
            "slot": "3",
            "type": "t_uint256"
          },
          {
            "astId": 30,
            "contract": "contracts/YourContract.sol:YourContract",
            "label": "id",
            "offset": 0,
            "slot": "4",
            "type": "t_uint256"
          }
        ],
        "numberOfBytes": "160"
      },
      "t_uint16": {
        "encoding": "inplace",
        "label": "uint16",
        "numberOfBytes": "2"
      },
      "t_uint256": {
        "encoding": "inplace",
        "label": "uint256",
        "numberOfBytes": "32"
      }
    }
  }
}